{
  "contractName": "Voting_smart_contract",
  "abi": [
    {
      "inputs": [],
      "payable": false,
      "stateMutability": "nonpayable",
      "type": "constructor"
    },
    {
      "constant": true,
      "inputs": [],
      "name": "candidate_count",
      "outputs": [
        {
          "internalType": "uint256",
          "name": "",
          "type": "uint256"
        }
      ],
      "payable": false,
      "stateMutability": "view",
      "type": "function"
    },
    {
      "constant": true,
      "inputs": [
        {
          "internalType": "uint256",
          "name": "",
          "type": "uint256"
        }
      ],
      "name": "candidates",
      "outputs": [
        {
          "internalType": "string",
          "name": "candidate_name",
          "type": "string"
        },
        {
          "internalType": "uint256",
          "name": "vote_count",
          "type": "uint256"
        }
      ],
      "payable": false,
      "stateMutability": "view",
      "type": "function"
    },
    {
      "constant": true,
      "inputs": [],
      "name": "voter_count",
      "outputs": [
        {
          "internalType": "uint256",
          "name": "",
          "type": "uint256"
        }
      ],
      "payable": false,
      "stateMutability": "view",
      "type": "function"
    },
    {
      "constant": true,
      "inputs": [
        {
          "internalType": "uint256",
          "name": "",
          "type": "uint256"
        }
      ],
      "name": "voters",
      "outputs": [
        {
          "internalType": "uint256",
          "name": "voted",
          "type": "uint256"
        },
        {
          "internalType": "uint256",
          "name": "modulus",
          "type": "uint256"
        },
        {
          "internalType": "uint256",
          "name": "public_key",
          "type": "uint256"
        }
      ],
      "payable": false,
      "stateMutability": "view",
      "type": "function"
    },
    {
      "constant": false,
      "inputs": [
        {
          "internalType": "uint256",
          "name": "voter_id",
          "type": "uint256"
        },
        {
          "internalType": "uint256",
          "name": "candidate_id",
          "type": "uint256"
        },
        {
          "internalType": "uint256",
          "name": "voter_id_signature",
          "type": "uint256"
        },
        {
          "internalType": "uint256",
          "name": "candidate_id_signature",
          "type": "uint256"
        }
      ],
      "name": "vote",
      "outputs": [],
      "payable": false,
      "stateMutability": "nonpayable",
      "type": "function"
    }
  ],
  "bytecode": "0x608060405234801561001057600080fd5b50605b600481905550600b600581905550600260038190555060046002819055506100756040518060400160405280600581526020017f426964656e0000000000000000000000000000000000000000000000000000008152506100e260201b60201c565b6100b96040518060400160405280600581526020017f5472756d700000000000000000000000000000000000000000000000000000008152506100e260201b60201c565b6100cb608f601761015060201b60201c565b6100dd6055601361015060201b60201c565b610262565b60008090506040518060400160405280838152602001828152506000806002548152602001908152602001600020600082015181600001908051906020019061012c9291906101bd565b50602082015181600101559050506002600081548092919060010191905055505050565b6000809050604051806060016040528082815260200184815260200183815250600160006003548152602001908152602001600020600082015181600001556020820151816001015560408201518160020155905050600360008154809291906001019190505550505050565b828054600181600116156101000203166002900490600052602060002090601f016020900481019282601f106101fe57805160ff191683800117855561022c565b8280016001018555821561022c579182015b8281111561022b578251825591602001919060010190610210565b5b509050610239919061023d565b5090565b61025f91905b8082111561025b576000816000905550600101610243565b5090565b90565b6105ec806102716000396000f3fe608060405234801561001057600080fd5b50600436106100575760003560e01c80633477ee2e1461005c5780634b1c4c291461010a57806368c9e38814610128578063beb604e014610174578063da58c7d914610192575b600080fd5b6100886004803603602081101561007257600080fd5b81019080803590602001909291905050506101e2565b6040518080602001838152602001828103825284818151815260200191508051906020019080838360005b838110156100ce5780820151818401526020810190506100b3565b50505050905090810190601f1680156100fb5780820380516001836020036101000a031916815260200191505b50935050505060405180910390f35b61011261029e565b6040518082815260200191505060405180910390f35b6101726004803603608081101561013e57600080fd5b81019080803590602001909291908035906020019092919080359060200190929190803590602001909291905050506102a4565b005b61017c610587565b6040518082815260200191505060405180910390f35b6101be600480360360208110156101a857600080fd5b810190808035906020019092919050505061058d565b60405180848152602001838152602001828152602001935050505060405180910390f35b6000602052806000526040600020600091509050806000018054600181600116156101000203166002900480601f01602080910402602001604051908101604052809291908181526020018280546001816001161561010002031660029004801561028e5780601f106102635761010080835404028352916020019161028e565b820191906000526020600020905b81548152906001019060200180831161027157829003601f168201915b5050505050908060010154905082565b60025481565b6000600454600554860a816102b557fe5b069050600060016000838152602001908152602001600020600101546001600084815260200190815260200160002060020154850a816102f157fe5b0690506000600454600554870a8161030557fe5b069050600060016000858152602001908152602001600020600101546001600086815260200190815260200160002060020154860a8161034157fe5b0690508288146103b9576040517f08c379a000000000000000000000000000000000000000000000000000000000815260040180806020018281038252601c8152602001807f4e6f7420612076616c696420766f746572207369676e61747572652e0000000081525060200191505060405180910390fd5b80871461042e576040517f08c379a000000000000000000000000000000000000000000000000000000000815260040180806020018281038252601c8152602001807f4e6f7420612076616c696420766f746572207369676e61747572652e0000000081525060200191505060405180910390fd5b6003548410801561043f5750600184115b6104b1576040517f08c379a00000000000000000000000000000000000000000000000000000000081526004018080602001828103825260158152602001807f4e6f7420612076616c696420766f7465722049442e000000000000000000000081525060200191505060405180910390fd5b600060016000868152602001908152602001600020600001541461053d576040517f08c379a00000000000000000000000000000000000000000000000000000000081526004018080602001828103825260188152602001807f566f7465722068617320616c726561647920766f7465642e000000000000000081525060200191505060405180910390fd5b600180600086815260200190815260200160002060000181905550600080838152602001908152602001600020600101600081548092919060010191905055505050505050505050565b60035481565b6001602052806000526040600020600091509050806000015490806001015490806002015490508356fea265627a7a723158206862f8ed5823d81bb713d35eca49dda0dd30fd99ff76e28b189af070f020053e64736f6c63430005100032",
  "source": "pragma solidity 0.5.16;\n\ncontract Voting_smart_contract {\n\n    struct candidate {\n        string candidate_name;\n        uint vote_count;\n    }\n\n    struct voter {\n        uint voted;\n        uint modulus;\n        uint public_key;\n    }\n\n    mapping(uint => candidate) public candidates;\n    mapping(uint => voter) public voters;\n\n    uint public candidate_count;\n    uint public voter_count;\n\n    uint contract_modulus;\n    uint contract_private_key;\n\n    constructor() public {\n        contract_modulus = 91;\n        contract_private_key = 11; //public key = 59\n        voter_count = 2;\n        candidate_count = 4;\n        addCandidateToBallot(\"Biden\");\n        addCandidateToBallot(\"Trump\");\n        addEligibleVoter(143, 23); //priv key = 47\n        addEligibleVoter(85, 19); //priv key = 27\n    }\n\n    function addCandidateToBallot (string memory candidate_name) private {\n        uint initial_vote_count = 0;\n        candidates[candidate_count] = candidate(candidate_name, initial_vote_count);\n        candidate_count++;\n    }\n\n    function addEligibleVoter(uint modulus, uint public_key) private {\n        uint initial_voted = 0;\n        voters[voter_count] = voter(initial_voted, modulus, public_key);\n        voter_count++;\n    }\n\n    function vote(uint voter_id, uint candidate_id, uint voter_id_signature, uint candidate_id_signature) public\n    {\n      uint decrypted_voter_id = (voter_id**contract_private_key)%contract_modulus;\n      uint decrypted_voter_signature = (voter_id_signature**voters[decrypted_voter_id].public_key)%voters[decrypted_voter_id].modulus;\n      uint decrypted_candidate_id = (candidate_id**contract_private_key)%contract_modulus;\n      uint decrypted_candidate_signature = (candidate_id_signature**voters[decrypted_voter_id].public_key)%voters[decrypted_voter_id].modulus;\n      require(voter_id == decrypted_voter_signature, \"Not a valid voter signature.\");\n      require(candidate_id == decrypted_candidate_signature, \"Not a valid voter signature.\");\n      require(decrypted_voter_id < voter_count && decrypted_voter_id > 1, \"Not a valid voter ID.\");\n      require(voters[decrypted_voter_id].voted == 0, \"Voter has already voted.\");\n      voters[decrypted_voter_id].voted = 1;\n      candidates[decrypted_candidate_id].vote_count++;\n    }\n}\n",
  "sourcePath": "/home/ubuntu/info_sec/contracts/Voting_smart_contract.sol",
  "compiler": {
    "name": "solc",
    "version": "0.5.16+commit.9c3226ce.Emscripten.clang"
  },
  "schemaVersion": "3.1.0",
  "updatedAt": "2020-04-21T19:49:32.891Z",
  "networkType": "ethereum",
  "devdoc": {
    "methods": {}
  },
  "userdoc": {
    "methods": {}
  }
}