{
  "contractName": "Voting_smart_contract",
  "abi": [
    {
      "inputs": [],
      "payable": false,
      "stateMutability": "nonpayable",
      "type": "constructor"
    },
    {
      "constant": true,
      "inputs": [],
      "name": "candidate_count",
      "outputs": [
        {
          "internalType": "uint256",
          "name": "",
          "type": "uint256"
        }
      ],
      "payable": false,
      "stateMutability": "view",
      "type": "function"
    },
    {
      "constant": true,
      "inputs": [
        {
          "internalType": "uint256",
          "name": "",
          "type": "uint256"
        }
      ],
      "name": "candidates",
      "outputs": [
        {
          "internalType": "string",
          "name": "candidate_name",
          "type": "string"
        },
        {
          "internalType": "uint256",
          "name": "vote_count",
          "type": "uint256"
        }
      ],
      "payable": false,
      "stateMutability": "view",
      "type": "function"
    },
    {
      "constant": true,
      "inputs": [],
      "name": "voter_count",
      "outputs": [
        {
          "internalType": "uint256",
          "name": "",
          "type": "uint256"
        }
      ],
      "payable": false,
      "stateMutability": "view",
      "type": "function"
    },
    {
      "constant": true,
      "inputs": [
        {
          "internalType": "uint256",
          "name": "",
          "type": "uint256"
        }
      ],
      "name": "voters",
      "outputs": [
        {
          "internalType": "uint256",
          "name": "voted",
          "type": "uint256"
        }
      ],
      "payable": false,
      "stateMutability": "view",
      "type": "function"
    },
    {
      "constant": false,
      "inputs": [
        {
          "internalType": "uint256",
          "name": "voter_id",
          "type": "uint256"
        },
        {
          "internalType": "string",
          "name": "candidate_name",
          "type": "string"
        }
      ],
      "name": "vote",
      "outputs": [],
      "payable": false,
      "stateMutability": "nonpayable",
      "type": "function"
    }
  ],
  "bytecode": "0x608060405234801561001057600080fd5b506100556040518060400160405280600581526020017f426964656e0000000000000000000000000000000000000000000000000000008152506100ba60201b60201c565b6100996040518060400160405280600581526020017f5472756d700000000000000000000000000000000000000000000000000000008152506100ba60201b60201c565b6100a761012860201b60201c565b6100b561012860201b60201c565b610218565b600080905060405180604001604052808381526020018281525060008060025481526020019081526020016000206000820151816000019080519060200190610104929190610173565b50602082015181600101559050506002600081548092919060010191905055505050565b60008090506040518060200160405280828152506001600060035481526020019081526020016000206000820151816000015590505060036000815480929190600101919050555050565b828054600181600116156101000203166002900490600052602060002090601f016020900481019282601f106101b457805160ff19168380011785556101e2565b828001600101855582156101e2579182015b828111156101e15782518255916020019190600101906101c6565b5b5090506101ef91906101f3565b5090565b61021591905b808211156102115760008160009055506001016101f9565b5090565b90565b610665806102276000396000f3fe608060405234801561001057600080fd5b50600436106100575760003560e01c8063241084751461005c5780633477ee2e146101215780634b1c4c29146101cf578063beb604e0146101ed578063da58c7d91461020b575b600080fd5b61011f6004803603604081101561007257600080fd5b81019080803590602001909291908035906020019064010000000081111561009957600080fd5b8201836020820111156100ab57600080fd5b803590602001918460018302840111640100000000831117156100cd57600080fd5b91908080601f016020809104026020016040519081016040528093929190818152602001838380828437600081840152601f19601f82011690508083019250505050505050919291929050505061024d565b005b61014d6004803603602081101561013757600080fd5b810190808035906020019092919050505061054a565b6040518080602001838152602001828103825284818151815260200191508051906020019080838360005b83811015610193578082015181840152602081019050610178565b50505050905090810190601f1680156101c05780820380516001836020036101000a031916815260200191505b50935050505060405180910390f35b6101d7610606565b6040518082815260200191505060405180910390f35b6101f561060c565b6040518082815260200191505060405180910390f35b6102376004803603602081101561022157600080fd5b8101908080359060200190929190505050610612565b6040518082815260200191505060405180910390f35b6003548210801561025f575060008210155b6102d1576040517f08c379a00000000000000000000000000000000000000000000000000000000081526004018080602001828103825260158152602001807f4e6f7420612076616c696420766f7465722049442e000000000000000000000081525060200191505060405180910390fd5b600060016000848152602001908152602001600020600001541461035d576040517f08c379a00000000000000000000000000000000000000000000000000000000081526004018080602001828103825260188152602001807f566f7465722068617320616c726561647920766f7465642e000000000000000081525060200191505060405180910390fd5b600180600084815260200190815260200160002060000181905550600080905060008090505b6002548110156104ca57826040516020018082805190602001908083835b602083106103c457805182526020820191506020810190506020830392506103a1565b6001836020036101000a0380198251168184511680821785525050505050509050019150506040516020818303038152906040528051906020012060008083815260200190815260200160002060000160405160200180828054600181600116156101000203166002900480156104725780601f10610450576101008083540402835291820191610472565b820191906000526020600020905b81548152906001019060200180831161045e575b50509150506040516020818303038152906040528051906020012014156104bd5760008082815260200190815260200160002060010160008154809291906001019190505550600191505b8080600101915050610383565b506001151581151514610545576040517f08c379a00000000000000000000000000000000000000000000000000000000081526004018080602001828103825260168152602001807f4e6f7420612076616c69642063616e6469646174652e0000000000000000000081525060200191505060405180910390fd5b505050565b6000602052806000526040600020600091509050806000018054600181600116156101000203166002900480601f0160208091040260200160405190810160405280929190818152602001828054600181600116156101000203166002900480156105f65780601f106105cb576101008083540402835291602001916105f6565b820191906000526020600020905b8154815290600101906020018083116105d957829003601f168201915b5050505050908060010154905082565b60025481565b60035481565b6001602052806000526040600020600091509050806000015490508156fea265627a7a72315820588a1dcb0314d48dbb050a5611a9b0dd118ddceab6916ce5d406ab81e187972164736f6c63430005100032",
  "source": "pragma solidity 0.5.16;\n\ncontract Voting_smart_contract {\n\n    struct candidate {\n        string candidate_name;\n        uint vote_count;\n    }\n\n    struct voter {\n        uint voted;\n    }\n\n    mapping(uint => candidate) public candidates;\n    mapping(uint => voter) public voters;\n\n    uint public candidate_count;\n    uint public voter_count;\n\n    constructor() public {\n        addCandidateToBallot(\"Biden\");\n        addCandidateToBallot(\"Trump\");\n        addEligibleVoter();\n        addEligibleVoter();\n    }\n\n    function addCandidateToBallot (string memory candidate_name) private {\n        uint initial_vote_count = 0;\n        candidates[candidate_count] = candidate(candidate_name, initial_vote_count);\n        candidate_count++;\n    }\n\n    function addEligibleVoter() private {\n        uint initial_voted = 0;\n        voters[voter_count] = voter(initial_voted);\n        voter_count++;\n    }\n\n    function vote(uint voter_id, string memory candidate_name) public\n    {\n      require(voter_id < voter_count && voter_id >= 0, \"Not a valid voter ID.\");\n      require(voters[voter_id].voted == 0, \"Voter has already voted.\");\n      voters[voter_id].voted = 1;\n      bool candidate_found = false;\n      for(uint index = 0; index < candidate_count; index++)\n      {\n        if(keccak256(abi.encodePacked(candidates[index].candidate_name)) == keccak256(abi.encodePacked(candidate_name)))\n        {\n          candidates[index].vote_count++;\n          candidate_found = true;\n        }\n      }\n      require(candidate_found == true, \"Not a valid candidate.\");\n    }\n}\n",
  "sourcePath": "/home/ubuntu/info_sec/contracts/Voting_smart_contract.sol",
  "compiler": {
    "name": "solc",
    "version": "0.5.16+commit.9c3226ce.Emscripten.clang"
  },
  "schemaVersion": "3.1.0",
  "updatedAt": "2020-04-20T19:01:46.162Z",
  "networkType": "ethereum",
  "devdoc": {
    "methods": {}
  },
  "userdoc": {
    "methods": {}
  }
}