{
  "contractName": "Voting_smart_contract",
  "abi": [
    {
      "inputs": [],
      "payable": false,
      "stateMutability": "nonpayable",
      "type": "constructor"
    },
    {
      "constant": true,
      "inputs": [],
      "name": "candidate_count",
      "outputs": [
        {
          "internalType": "uint256",
          "name": "",
          "type": "uint256"
        }
      ],
      "payable": false,
      "stateMutability": "view",
      "type": "function"
    },
    {
      "constant": true,
      "inputs": [
        {
          "internalType": "uint256",
          "name": "",
          "type": "uint256"
        }
      ],
      "name": "candidates",
      "outputs": [
        {
          "internalType": "string",
          "name": "candidate_name",
          "type": "string"
        },
        {
          "internalType": "uint256",
          "name": "vote_count",
          "type": "uint256"
        }
      ],
      "payable": false,
      "stateMutability": "view",
      "type": "function"
    },
    {
      "constant": true,
      "inputs": [],
      "name": "voter_count",
      "outputs": [
        {
          "internalType": "uint256",
          "name": "",
          "type": "uint256"
        }
      ],
      "payable": false,
      "stateMutability": "view",
      "type": "function"
    },
    {
      "constant": true,
      "inputs": [
        {
          "internalType": "uint256",
          "name": "",
          "type": "uint256"
        }
      ],
      "name": "voters",
      "outputs": [
        {
          "internalType": "uint256",
          "name": "voted",
          "type": "uint256"
        }
      ],
      "payable": false,
      "stateMutability": "view",
      "type": "function"
    },
    {
      "constant": false,
      "inputs": [
        {
          "internalType": "uint256",
          "name": "voter_id",
          "type": "uint256"
        },
        {
          "internalType": "string",
          "name": "candidate_id",
          "type": "string"
        }
      ],
      "name": "vote",
      "outputs": [],
      "payable": false,
      "stateMutability": "nonpayable",
      "type": "function"
    }
  ],
  "bytecode": "0x608060405234801561001057600080fd5b506100556040518060400160405280600981526020017f4a6f6520426964656e00000000000000000000000000000000000000000000008152506100ba60201b60201c565b6100996040518060400160405280600c81526020017f446f6e616c64205472756d7000000000000000000000000000000000000000008152506100ba60201b60201c565b6100a761012860201b60201c565b6100b561012860201b60201c565b610218565b600080905060405180604001604052808381526020018281525060008060025481526020019081526020016000206000820151816000019080519060200190610104929190610173565b50602082015181600101559050506002600081548092919060010191905055505050565b60008090506040518060200160405280828152506001600060035481526020019081526020016000206000820151816000015590505060036000815480929190600101919050555050565b828054600181600116156101000203166002900490600052602060002090601f016020900481019282601f106101b457805160ff19168380011785556101e2565b828001600101855582156101e2579182015b828111156101e15782518255916020019190600101906101c6565b5b5090506101ef91906101f3565b5090565b61021591905b808211156102115760008160009055506001016101f9565b5090565b90565b6103de806102276000396000f3fe608060405234801561001057600080fd5b50600436106100575760003560e01c8063241084751461005c5780633477ee2e146101215780634b1c4c29146101cf578063beb604e0146101ed578063da58c7d91461020b575b600080fd5b61011f6004803603604081101561007257600080fd5b81019080803590602001909291908035906020019064010000000081111561009957600080fd5b8201836020820111156100ab57600080fd5b803590602001918460018302840111640100000000831117156100cd57600080fd5b91908080601f016020809104026020016040519081016040528093929190818152602001838380828437600081840152601f19601f82011690508083019250505050505050919291929050505061024d565b005b61014d6004803603602081101561013757600080fd5b81019080803590602001909291905050506102c3565b6040518080602001838152602001828103825284818151815260200191508051906020019080838360005b83811015610193578082015181840152602081019050610178565b50505050905090810190601f1680156101c05780820380516001836020036101000a031916815260200191505b50935050505060405180910390f35b6101d761037f565b6040518082815260200191505060405180910390f35b6101f5610385565b6040518082815260200191505060405180910390f35b6102376004803603602081101561022157600080fd5b810190808035906020019092919050505061038b565b6040518082815260200191505060405180910390f35b60035482111561025c57600080fd5b600060016000848152602001908152602001600020600001541461027f57600080fd5b600180600084815260200190815260200160002060000181905550600080808152602001908152602001600020600101600081548092919060010191905055505050565b6000602052806000526040600020600091509050806000018054600181600116156101000203166002900480601f01602080910402602001604051908101604052809291908181526020018280546001816001161561010002031660029004801561036f5780601f106103445761010080835404028352916020019161036f565b820191906000526020600020905b81548152906001019060200180831161035257829003601f168201915b5050505050908060010154905082565b60025481565b60035481565b6001602052806000526040600020600091509050806000015490508156fea265627a7a72315820b5c0a541b511a7adab9eb3d9ed5ea9515e822456aba9a558de74a18122add68764736f6c63430005100032",
  "source": "pragma solidity 0.5.16;\n\ncontract Voting_smart_contract {\n\n    struct candidate {\n        string candidate_name;\n        uint vote_count;\n    }\n\n    struct voter {\n        uint voted;\n    }\n\n    mapping(uint => candidate) public candidates;\n    mapping(uint => voter) public voters;\n\n    uint public candidate_count;\n    uint public voter_count;\n\n    constructor() public {\n        addCandidateToBallot(\"Joe Biden\");\n        addCandidateToBallot(\"Donald Trump\");\n        addEligibleVoter();\n        addEligibleVoter();\n    }\n\n    function addCandidateToBallot (string memory candidate_name) private {\n        uint initial_vote_count = 0;\n        candidates[candidate_count] = candidate(candidate_name, initial_vote_count);\n        candidate_count++;\n    }\n\n    function addEligibleVoter() private {\n        uint initial_voted = 0;\n        voters[voter_count] = voter(initial_voted);\n        voter_count++;\n    }\n\n    function vote(uint voter_id, string memory candidate_id) public\n    {\n      require(voter_id <= voter_count);\n      require(voters[voter_id].voted == 0);\n      voters[voter_id].voted = 1;\n      candidates[0].vote_count++;\n    }\n}\n",
  "sourcePath": "/home/ubuntu/info_sec/contracts/Voting_smart_contract.sol",
  "compiler": {
    "name": "solc",
    "version": "0.5.16+commit.9c3226ce.Emscripten.clang"
  },
  "schemaVersion": "3.1.0",
  "updatedAt": "2020-04-20T17:29:42.225Z",
  "networkType": "ethereum",
  "devdoc": {
    "methods": {}
  },
  "userdoc": {
    "methods": {}
  }
}